S0190000736F632D626C75766973696F6E2D6265656B2E733337CA
S21400000000000120313500002D3500002D350000A0
S2140000102D3500002D3500002D3500002D35000053
S2140000202D3500002D3500002D3500002D35000043
S2140000302D3500002D3500002D3500002D35000033
S2140000402D350000856300002D3500002D3500009D
S2140000505D5B0000F163000091630000A96300008F
S214000060896300002D3500002D3500002D35000079
S2140000702D3500002D3500002D3500002D350000F3
S2140000802D3500002D3500002D3500002D350000E3
S2140000902D3500002D3500002D3500002D350000D3
S2140000A02D3500002D3500002D3500002D350000C3
S2140000B0F56300008D6300002D35000035640000F8
S2140000C02D3500003D4D00002D3500002D3500007B
S2140000D02D3500002D3500002D3500002D35000093
S2140000E02D3500002D3500002D3500002D35000083
S2140000F02D3500002D3500002D3500002D35000073
S2140001002D3500002D3500002D35000010B5054CAE
S214000110237833B9044B13B10448AFF300800123AE
S214000120237010BDB800002000000000DCAB00000B
S21400013008B5034B1BB103490348AFF3008008BD65
S21400014000000000BC000020DCAB0000154B002BBC
S21400015008BF134B9D46A3F5803A00218B460F46F9
S2140001601348144A121A08F0F0FD0F4B002B00D06B
S21400017098470E4B002B00D0984700200021040023
S2140001800D000D48002802D00C48AFF3008008F0A0
S214000190ADFD2000290002F063FB08F093FD00BFD0
S2140001A00000080000000120000000000000000021
S2140001B0B80000203C1C00200000000000000000EA
S2140001C037B50446684680E8060003C8251D85E85E
S2140001D005002373069B2361BDF81C30A382002311
S2140001E02360084B1A6812B91C6004E00A461168BE
S2140001F00029FBD114609888013080B2988003B043
S21400020030BD00BFD006002007B503790193054A2C
S2140002100368009306CA02230830FFF7D1FF03B035
S2140002205DF804FBD48F00000A4B40F2011210B5B3
S2140002301A604FF0FF329A6001225A6008441A464C
S214000240814202D1D869C04310BD11F8014B9461B8
S214000250F6E700BF00C0014070B5134C2268A2F15B
S2140002607E63A3F58433B3F5104FE0B005460E4623
S21400027017D2126BA2F17E63A3F58433B3F5104F49
S2140002800FD2536A69464FF4C0720020984730B9BF
S21400029023681B6B3246DB6A29466846984760B07F
S2140002A070BD4FF40170FAE72808E10F0F4A10B44A
S2140002B01468A4F17E62A2F58432B2F5104F0B46A4
S2140002C00FD2246BA4F17E62A2F58432B2F5104FF1
S2140002D007D22469064A0146A44600205DF8044B6E
S2140002E060474FF481705DF8044B70472808E10FB3
S2140002F02007002070B51C4D2A68A2F17E63A3F586
S2140003008433B3F5104FE0B004D34FF401742046A5
S21400031060B070BD136B002BF7D05B6A4FF4C072F1
S21400032069460020984704460028F0D140F201268E
S2140003302A68A2F17E63A3F58433B3F5104FE4D2A6
S214000340126BA2F17E63A3F58433B3F5104FDCD2B3
S214000350936A002168469847B042E9D040F20323EA
S214000360984218BF0446D2E72808E10F154B02282A
S214000370D3F8803113D0032814D0012814BFDBB281
S214000380C3F307231B0323F47042B1B9BAB90E496D
S214000390CA6E22F470421343CB6601207047C3F343
S2140003A00743EFE71B0EEDE70749D1F8EC2022F4F0
S2140003B070421343C1F8EC30EFE7002AF4D0002077
S2140003C0704700BFB081E00F00300E40304B1A6F10
S2140003D0D96CC90702F0070242D5012A40D9132872
S2140003E051D9143813288CBF102308232849013B01
S2140003F0CA6C180322F47F4240EA03231343CB64FB
S214000400244BCA6C1B88C2F303222833013202EB4A
S214000410820003EB5303B3FBF0F3C86C013B072BDE
S21400042020F0EE6028BF072340F4801040EA036304
S214000430CB64194BB3F90030002B10DB283350087F
S21400044000EB420203EB5303B3FBF2F30A6D072BF8
S21400045028BF072322F0700242EA03130B65704799
S214000460DB6CD90706D4012A04D809280BD90A3828
S2140004700928B8E7064BDB6C13F00103B6D0012A57
S21400048003D82728AFE70423B0E70023AEE700BF72
S21400049000300E40EE060020F006002042EA03235D
S2140004A040F2011293422BD0B3F5817F08D2012B84
S2140004B01DD030D3B3F5807F31D0002213461CE028
S2140004C040F20122934222D006D8B3F5007FF4D141
S2140004D0174BD3F870310DE0B3F5407F23D040F2D0
S2140004E001329342E9D1124BD3F878310BE0104B2E
S2140004F0D3F87431C3F30722DBB203600A60704797
S2140005000B4BD3F874311A0EC3F30743F5E7084BC9
S214000510D3F87831EEE7064BD3F86C31EAE7044BB4
S214000520D3F86C31EFE7024BD3F87031EBE700BF3E
S214000530B081E00F044B1B685B0603D4034A1368C4
S214000540002BFCD1704700BF3C300E40C800C643AD
S2140005500E4B30B50E4C5B68C9B2002304EBC302E9
S21400056015798D4203D154F8335085420BD20133AE
S214000570052BF3D1032205494B6823F0407343EA69
S21400058002634B6030BD5279F5E700BF00000E40B5
S214000590E08E000038B5054C41F67133256C2364B7
S2140005A0FFF7D6FF0DB10023236438BD00000E40D0
S2140005B00C4B984210D90C4B984210D902220123BA
S2140005C00A490B600A49D1F8003123F0807343EAE8
S2140005D00263C1F80031704700221346F0E701229B
S2140005E0FBE700BF0048E8010090D0034000C84386
S2140005F000400E40094B30B5196C5C6C0022234657
S21400060042EA0104220C82701A0A210AC2701A0CED
S2140006101B0E047041700271437130BDB081E00F53
S214000620214BD3F8F82102401CD170B4D3F8FC510A
S214000630D3F8006203F5FC74641BA410022C12D0DD
S214000640032C29D0012C1AD0184A52682A6005F1CA
S2140006500C026860C3F8FC21A96033680C33336071
S21400066070BC70477047114A1C1D52682A6068604B
S21400067004221960C3F8FC41326070BC70470B4C12
S2140006801A4664682C6042F8080B08205960C3F8C4
S214000690FC21306070BC7047044C6468A960C5E9F2
S2140006A00040C3F8FC31E7E7C4150020001000E066
S2140006B0837DDB0701D5808A7047D0E901239B1A2A
S2140006C044BF828A9B1898B270470000044B5A6D4C
S2140006D022B95865A3F858100120704700207047CB
S2140006E070060020D0B50C4CE38C0A20584308F066
S2140006F04DF80646A08C0F4608F048F80022074B37
S21400070008F0AEF802460B463046394608F0D2F9F5
S21400071008F0B8FA2083D0BD700600200000F43F31
S214000720084A10B5146840F2E243584303FB0141FF
S214000730536800F5807001EB50011844116050605A
S21400074010BD00BF7006002070B500228AB01346A8
S214000750D91003F00704415C2141CC0741BF0AA928
S2140007608918013201F8283C0133252BF0D10E4DB3
S2140007700023D91003F00704415C2141C90707D5BF
S214000780E91881F82A300133252BF2D10AB070BD62
S2140007900AAE93FBF2F102FB11313144EC1811F86A
S2140007A0286C84F82A60EEE770060020024B986CEE
S2140007B080B28002704700BFB081E00F7FB50E4B5D
S2140007C002466D4603F11006186859682C4603C4A5
S2140007D00833B3422546F7D1531E04A90F3211F849
S2140007E0014D13F8010F844204D19342F7D1012042
S2140007F004B070BD0020FBE7C48D000070B5154D39
S214000800286810BB144B154CE41A154B1C4424F4F2
S214000810FF6424F00704FFF7C9FF844214D2666B16
S214000820A6B1FFF7C3FF864210D2FFF7BFFF06F15F
S214000830400383420AD83046FFF7C0FF30B1F36961
S21400084033F0080302D02C60286870BD04F50064FD
S214000850E1E700BF3401002010000020B4000020B3
S21400086027B40000BFF34F8F0549064BCA6802F451
S214000870E0621343CB60BFF34F8F00BFFDE700BFBE
S21400088000ED00E00400FA050A4B1A68A2F17E6348
S214000890A3F58433B3F5104F09D2126BA2F17E6331
S2140008A0A3F58433B3F5104F01D2D36B184740F24B
S2140008B0011070472808E10F0D4B10B41C68A4F116
S2140008C07E63A3F58433B3F5104F0BD2246BA4F1EB
S2140008D07E63A3F58433B3F5104F03D2A36B5DF8A4
S2140008E0044B184740F201105DF8044B704700BFF8
S2140008F02808E10F064B1A68A2F17E63A3F584333D
S214000900B3F5104F01D2536A18470020704700BF56
S2140009102808E10F114B196801F1704303F5F8132D
S214000920B3F5006F0CD20E4B1B68A3F17E62A2F5E6
S2140009308432B2F5104F03D209680A4A914203D0B6
S21400094000230370836070471968074A9142F7D105
S214000950012202709A6842609B69F3E72800E10F63
S2140009602808E10FAD1007B007B0CD5E10B50C46F5
S21400097030B90448FFF7CEFF034B23600423A3805F
S214000980002010BD900100209401002010B508B38F
S214000990114B1A68918881421CD39988814281BF85
S2140009A00121126899809A6099889A6800242AB969
S2140009B004B19A604FF6FF71998009E0884204D02E
S2140009C00131126889B20124F1E70CB198809A606F
S2140009D0104610BD0022FBE7D806002037B50D46AE
S2140009E01446FFF7D3FFD8B10369828A63B14FF686
S2140009F0FE718A4208D100200090ADF804006946D6
S214000A00984738B103B030BD2B602280286848B9BB
S214000A102080F7E7009B2B60BDF804302380F5E7C5
S214000A200120EFE70020EDE737B50D461446FFF747
S214000A30ADFF70B1036973B1818A4FF6FE729142C1
S214000A4009D10095ADF8044069460120984703B0E7
S214000A5030BD0120FBE70E20F9E7000037B503792B
S214000A60124A03330446019300F14403009306CA76
S214000A7002231430FFF7A4FB228A0192E268237A4D
S214000A80009204F12C0094E80600FFF799FB237A05
S214000A90A4F84500054684F844302279216804F11C
S214000AA0470008F047F9284603B030BDCC8F000059
S214000AB070B50E4C0E4B04F1100206460D4692E839
S214000AC00300183483E803001846FFF79DFB094B24
S214000AD094E8030002221A7283E80300DE601D8297
S214000AE01846BDE87040FFF7B9BF00BFC48D0000D0
S214000AF05C150020B80400202DE9F0410546164696
S214000B008846FFF7D5FDAB8A181A80B2864228BF02
S214000B10064637465FB93EB1D5E901329A4202BF72
S214000B20AB7D43F00103AB753046BDE8F081AB8A80
S214000B302C68A8681C44241AA3B2BB428CBF3C464F
S214000B40A4B22246414608F0F5F8AB682968AA8A9E
S214000B5023440A44A0449342A7EB0404AB60A7B224
S214000B6028BFA960D6E770B5044615461E4611B3E1
S214000B70FFF79EFDA38A181A80B2012829D9E37DC3
S214000B8063B1E368628A1A70120A07D02068A18AE5
S214000B90013301448B4228BF0346F4E700236382F7
S214000BA0A368E360022204F112012046FFF7A4FFC7
S214000BB0E37D0133E375324629462046FFF79CFF66
S214000BC0638A03446382E37D13B9238A0344238242
S214000BD070BD0020FCE72DE9F04116460546884624
S214000BE0FFF766FD864228BF0646B6B237464FB9BF
S214000BF02EB1AB7DDA0744BF23F00103AB75304658
S214000C00BDE8F081AB8A2C6869681C44641AA3B2FC
S214000C10BB428CBF3C46A4B22246404608F08AF847
S214000C206B682968AA8A23440A44A0449342A7EB27
S214000C3004046B60A7B228BF6960D8E770B51E468B
S214000C40038A04461546EBB9C27DDAB10123013AA0
S214000C500B70C27500F110010222FFF7BCFFE37DA6
S214000C609BB1228AB24228BF324629462046FFF769
S214000C70B2FF238A1B1A2382E37D13B9638A1B1AE9
S214000C80638270BD00230B70EBE7638A2382E8E77C
S214000C9070B50D46A8B9FFF7B1FD446BFFF7AEFD82
S214000CA058B12346084C03F1400618685968224696
S214000CB003C20833B3421446F7D1044B2B60042317
S214000CC0AB80002070BD00BF380100205801002016
S214000CD02DE9F04385B088466946044681E80C0055
S214000CE00C9EBDF83470FFF751FE4FF6FE790546B0
S214000CF00DB1444505D94FF6FF74204605B0BDE852
S214000D00F0832B7A9DF804209A421ED100996868D9
S214000D1008F023F8C8B9002EEFD02B69AA8AA3B131
S214000D204A4509D10290ADF80C0002A9984760B96F
S214000D30029BBDF80C2043B1974206D13A461946AD
S214000D40304608F00AF80028D7D001342D68A4B23F
S214000D50CEE70000F0B5354C85B011464FF48670EE
S214000D601F461646FFF75CFC236925462BB94FF451
S214000D708370FFF755FC05B0F0BD002F08BF082EA6
S214000D8021D16A460221206802F0FCFE6368606199
S214000D905B7A23769DF80030DA1F53425341627E19
S214000DA063F30002029BE361BDF802306276638360
S214000DB004F11801236902209847012200212068C7
S214000DC002F0E8FED7E7002F08BFB6F5800F03D184
S214000DD0002101209847CEE706F440520023134333
S214000DE009D04FF480714FF48170FFF719FC236926
S214000DF000210320EEE706F4A0620023134308D088
S214000E0001214FF48170FFF70BFC2B690021FF20B6
S214000E10E0E706F0A0520023134319BF012140F279
S214000E20011031464FF48370EDE700BFB013002089
S214000E307FB502238DF80C30064B5A8B596918681B
S214000E400332029201AA02F0A1FE019807B05DF8F3
S214000E5004FB00BFB013002008B500214FF48570D6
S214000E60FFF7DEFB044B00221A61186801220321FB
S214000E70BDE8084002F0FABBB013002013B50D4BD6
S214000E800D4C1B88ADF804300128ADF8003004BFC7
S214000E9002238DF8043001A908BF0423206808BF88
S214000EA08DF8003002F0C6FD6946206802F0E2FDCB
S214000EB002B010BDE48D0000B013002037B5124C10
S214000EC0437A606000220092D0E90021206802F098
S214000ED0E2FE238CDB050CD563680C4D1A7A297864
S214000EE0914206D0012A06D0022A08D063681B7AEF
S214000EF02B7003B030BD206802F093FEF6E7206842
S214000F0002F0A2FEF2E700BFB0130020CD060020DC
S214000F107FB51A4C1948637A0133DBB2272B88BF9A
S214000F2025236372FFF7CAFF257B627C144C1549A4
S214000F3020684FF40073023202F004FE6368124A1F
S214000F405B7A05F001052846D65CFFF797FF42F26C
S214000F50107300220293009201238DF80C30314664
S214000F6002AB206802F086FB28B1FFF775FFFFF79B
S214000F70CFFF04B070BD054B2361FAE7D400002014
S214000F80B0130020E4000020A08F000089170000A6
S214000F9038B50D4611462C68A41A2246014407F0BF
S214000FA0EBFE2C6038BD00002DE9F843514E524C44
S214000FB0524FA41B524E3B68344424F4FF64C51AB7
S214000FC024F007044F48A5420560B946804672D310
S214000FD013445E19FFF7EAFBA0F5805086426AD8F4
S214000FE038688618B6F5806F03D9474B82221A7088
S214000FF05FE0464F384407F09DFE454BC9F8006059
S2140010001A681AB9332E54D97A6B1A601B689D4237
S21400101005EB06041DD8A3421BD203F11002A24220
S21400102047D85B1B1F443B4A3B4607F1100153F869
S214001030040B42F8040B8B42F9D13648FFF7BEFB8F
S21400104010B9314B8422D2E71022FF21384607F030
S2140010507CFE314F31483B6806F00306A41B044073
S21400106053B92840C0F500612144FFF70DFC3C60F1
S21400107040B1254B8522BAE7A34203D2E11A03F515
S2140010800060F2E7D9F800202049D8F80000921B4B
S214001090FFF712FCD9F80020D8F800301749921B49
S2140010A0044613441948C8F80030FFF771FF002CB7
S2140010B0DFD1BDE8F8831A4B5B68B3F1827F124B31
S2140010C012D218780A4400268A4203D1002EF0D0A5
S2140010D01870EEE711F8017BFF2FF5D00126A54228
S2140010E034BF87208320EFE7A54234BF87228322C0
S2140010F07DE700BF10000020B4000020A8130020E9
S21400110027B40000280B0020250B0020A80F002085
S214001110A40F0020940F0020AC13002000F8FFFF5F
S2140011209C010020EFF3108072B670470B4A53699B
S21400113011699B0003F03C03C1F381110B438370DC
S214001140136903F03F0343709369D26903F0F00319
S214001150C2F3031213430370704700BFD0FF0FE0C3
S214001160054A064B1B68136F23F007031843044B0E
S21400117010671888FFF72AB900300E408009C6436A
S214001180EC060020EFF3108072B6704700B962B626
S2140011907047000010B5034CA01DFFF7D5FA0023DA
S2140011A0236010BD740F002010B5094CB4F807106A
S2140011B0A079FFF7B5FAA368064AB4F80D10D184F3
S2140011C0C3F30F239384FFF78DFA0023236010BD2B
S2140011D0740F002070060020034B044A997911759D
S2140011E000221A60704700BF740F002070060020AF
S2140011F0FFF7CCBF2DE9F0410D4F06460D461446CD
S2140012000CB9BDE8F081EFF3108872B623462A4683
S21400121031463846FFF7A7FC03464046FFF7B6FFC1
S214001220002BEDD0E41AA4B21D440026E8E700BF68
S214001230580E002013B5002301F10804ADF8043061
S214001240ADF8060021461A46083151F8100C70B960
S2140012500BB1ADF8042004220DEB02010120083486
S214001260FFF7C8FF54F8101C39B902B010BD51F88A
S2140012700C3C1A4492B20123E6E734F80C2C00200A
S214001280EDE700007FB500230130CDE90101CDE98F
S21400129004336946044B009304200392FFF7CAFF09
S2140012A007B05DF804FB00BF7E0100200E4A1368FD
S2140012B0A3F17E63A3F58433B3F5104F10B50ED2B9
S2140012C0EFF3108072B6094900240B780C70FFF714
S2140012D05DFF3BB11368BDE810401B6A18474FF42A
S2140012E0817010BD1846FCE72808E10F710F00203A
S2140012F001282DE9F34740F030818B88012B40F020
S2140013002E810B681B7813BB974A984C1360984A3B
S2140013101360984A1360984A1360984A1360984A74
S2140013201370984A1360984A13602278022A01D1F3
S214001330FFF7BCFF01232370944B00241C70944BD2
S2140013401C70944B1C70204602B0BDE8F087032B3F
S21400135040F0F0808F4B854E1C78002C4AD13378B5
S214001360002B00F0DB80864B1B78082B7AD17E4A58
S214001370136890468BB9884D2B68A3F17E63A3F55E
S2140013808433B3F5104F50D34FF4017041F2080385
S214001390984200F0C58080242CE013F003071ABFA3
S2140013A0C7F10407FFB2274603EB070ABAF5806FBA
S2140013B000F2BA8079483A461844FF2107F0C5FC87
S2140013C0704B6B4AC8F800A015681A681544554457
S2140013D0DFF8A8A125F4FF65DAF8000025F0070578
S2140013E0854299460BD9291A00F50060FFF74CFA9A
S2140013F018B1852400233370A5E7CAF80050D8F842
S2140014000010D9F80000FEF751FFD9F80030D8F8E0
S2140014100020554913440546DF1B6048C9F8007094
S214001420FFF7B6FD002DA6D0E3E7FEF763FF002822
S214001430ACD12A680190A2F17E63A3F58433B3F59C
S214001440104F0BD2126BA2F17E63A3F58433B3F573
S214001450104F03D29369012101A898474C4B0122F3
S2140014601A70C7E7002B5DD0484B1B78002B92D034
S214001470454F3B6843B9404B494918681022FFF76F
S2140014801BFA0028B6D0B4E713F003021CBFC2F163
S2140014900402D2B29D18B5F5806F45D84148FF21A9
S2140014A0184407F052FC404A404B324840493D60E1
S2140014B09B1A404A134402680B409342804635D834
S2140014C01544FFF773F9A0F58050854230D83D6883
S2140014D0DFF8A8902A44D9F8000002EA0105854200
S2140014E008D9291A00F50060FFF7CEF9002880D148
S2140014F0C9F800503A682B49D8F80000FFF7DCF925
S214001500D8F800303A682049054613442548C8F8FC
S2140015100030FFF73DFD002DADD06AE7812469E776
S214001520862467E7842465E7822463E7872461E7E7
S21400153083245FE7042B14D11F4C1323022163700E
S21400154020462170FFF7C2F81C4A1D4B128905324F
S2140015509A801C4A1A6062789A710024F3E60D2479
S214001560F1E60624EFE600BF200B0020260B002045
S214001570BC150020280B0020A40F0020AC13002070
S214001580780100202C0B0020A8130020240B00203C
S21400159085010020250B00202808E10F20070020E9
S2140015A0940F0020A80F002010000020B400002098
S2140015B000F8FFFF27B40000880F00207006002008
S2140015C0740F0020851C00000E4A1368A3F17E638A
S2140015D0A3F58433B3F5104F10B50ED2EFF3108099
S2140015E072B6094B012419781C70FFF7CFFD39B984
S2140015F01368BDE81040DB6918474FF4817010BDD2
S2140016000020FCE72808E10F710F0020134A144C55
S21400161008B5937E43F040039376124B00221A706F
S214001620114B1B784FF000556BB1FFF7CDFF0F4BFA
S2140016302B600123A360236823F4E06343F48063F4
S2140016402360FFF70FF92B600123A360236823F4C0
S214001650E06343F480632360FFF704F9700600201C
S21400166000500E40CC0600208501002002020FF03C
S21400167010B5134CA37E5B0621D4FFF7EDFB216863
S214001680A38C40F2E24202FB0312226094F84F1051
S214001690A27A25200A4492FBF0F100FB1122A272E6
S2140016A022890132228162680A2101FB03236360DA
S2140016B0238B5A1E228313B90820FFF7A7FF10BDFD
S2140016C0700600202DE9FF41294C40F601002189D3
S2140016D0FEF7A6FFA37E13F0400242D143F00103BB
S2140016E003F0FD0362F38203224AA376136823B154
S2140016F021899288914200D19847A37A1E4F1F48AD
S214001700234493F82A306375FFF7D8FBD4E90054D6
S2140017107B681B4A5B7A64082E1B12F80380012044
S214001720FFF7ACFB64350096002625446A46012484
S21400173041463346386802958DF804608DF80C6093
S2140017408DF80D408DF80E6001F098FF2246054694
S2140017503146386802F01EFA35B1FFF789FFFFF709
S214001760B1FF04B0BDE8F081064B3B61F9E700BF6E
S21400177070060020740F0020B01300207C060020A6
S214001780A08F0000ED18000002282DE9F0411FD0C0
S21400179002D8012807D0FEE7032800F09C80FF2827
S2140017A000F09980F7E74D4C237B980707D5FFF7A5
S2140017B053FBFFF7ADFB237B6FF341032373237BC0
S2140017C0990701D4DA0764D4BDE8F041FFF7A0BB5F
S2140017D04B784C68DB077ED5227802F00F07032F84
S2140017E059D0052F77D13E498B7B03F00103B3EB2D
S2140017F0D21F04F108004CD10622083107F0ADFADA
S2140018008046002845D1FFF727FBFFF711FB354D33
S214001810414606465C22284607F097FAAB7E2F83A1
S21400182043F02003AB76627E237E43EA0223AB843A
S214001830627F237F43EA0223EB8494F82330C3F3CA
S214001840040385F84F3094F82330C3F3421385F829
S214001850503004F11E001B232B85FEF775FFD4F8CD
S2140018600E30E27CEB60A37C2E6043EA0223227DEE
S214001870607D43EA02432B61012795F84F30AB7237
S2140018802F75E18A3944FEF74BFFFFF71BFF164B17
S2140018901F70BDE8F081124DAB7B03F00103B3EB84
S2140018A0D21F04F10800F4D1062205F1080107F062
S2140018B054FA0028EDD1094C286894F839204FF4E2
S2140018C00073023204F1380102F03CF9237B43F046
S2140018D002032373DDE7FFF7BFFA75E7D4000020A5
S2140018E0B013002070060020CC06002002282DE948
S2140018F0F7430F460BD003D8012800F0B281FEE76D
S214001900032800F0B681FF2800F0B381F7E7487897
S2140019104E68BB4D10F0010461D14FF0FF3140F628
S2140019200300FEF77DFE2646AB7EB64C13F0200F76
S21400193012D0696D6FF34513AB76002900F09F80D7
S214001940237895F85820627043F003032370A01C98
S21400195007F0F0F900236B65AB48DFF8D082FEF79E
S214001960A7FEAA7E2378003018BF012060F341024C
S214001970C2F30011AA7661F38203C2F3C00262F3D7
S214001980C30360F304132370218840F60200FEF7B9
S21400199047FE62789B49D8F8000002324FF4007385
S2140019A0D2B202F0CFF8AB7E7C68D90709D56FF3C8
S2140019B00003AB7600236B60FFF73AFA2860FEF769
S2140019C091FE4EB1237803F00303022B00F0318121
S2140019D06DD8012B00F02C8103B0BDE8F083318870
S2140019E040F60300FEF71CFE3378A97E96F80080CA
S2140019F0C3F3001363F38201A976C8F3C003C1F3EF
S214001A0000118B4206D108F00303022B05D019D82B
S214001A10012B31D00026344615E0A146767896B1E3
S214001A207A48848AFEF744FE201A80B2B9F1000F85
S214001A3004D0022886BF023880B2002086428CBFBF
S214001A40002401242646AB7EC8F38008C3F3C002F8
S214001A50904507D082F0010262F3C303DBB243F085
S214001A602003AB76002C3FF45FAFAB7E81F0010124
S214001A7061F30413AB7657E74FF00009CEE795F80D
S214001A8028306148A21C0DF10701FFF7D7F8C0B255
S214001A9058B19DF80730002B0CBF01220222237894
S214001AA0607062F30103237056E70122F7E7A3781C
S214001AB0022B65D011D8002B4DD0012B38D0544ABC
S214001AC0127822B1162B7FD0182B00F08C8051484C
S214001AD0072202704370022127E00C2B18D0142B2B
S214001AE056D0082BEBD1B8F8201054F8035FC8B2D4
S214001AF005EA0002474801F47F41044642EA010530
S214001B00092104F8011B0023C0F8015063600CE0B3
S214001B1040484FF0FF320370012343708270037118
S214001B2002220023C27043710621FEF7CFFD53E761
S214001B30617A237A384A43EA012393801346374969
S214001B4043F8061B54F8031FC2F80610A2889A80B2
S214001B50A2799A7140E7627B237B2F4943EA0223EE
S214001B608B800B462E4A43F8062B54F8032FC1F8F9
S214001B70062062685A6022891A81A27A9A722BE736
S214001B802A89254B05329A80264A1A60E278E0E7D1
S214001B90B4F80530B4F803201E48DB08934228BF8B
S214001BA013462B85152300216FF004046FF02702DF
S214001BB003700723817081714470C2700371447191
S214001BC0C27103720921B0E72279E3781148134005
S214001BD003F00303022B18BF012317220270437081
S214001BE083700321A1E76279A1790B4B42EA0122B7
S214001BF09A800D4A1A60D4F80320C3F80620EBE654
S214001C0070060020C8170020580E0020400D002047
S214001C10700F0020880F0020740F00209511000020
S214001C20A9110000851C0000D9110000B013002087
S214001C3000261248818AFEF73BFD081AA51C80B2D2
S214001C40647826B1022886BF023880B20020A3B28C
S214001C5083423FF6C1AE2A4631460848FEF783FF68
S214001C60BAE6074B9B7E9A073FF5B6AE5B073FF595
S214001C70B3AEFFF7FDFCFFF725FDADE6400D0020F7
S214001C807006002008B5024B9879FFF7BFFC00BF2E
S214001C90740F00202DE9F04F01288BB040F05281E0
S214001CA08A88002A00F05081A94D95F800B0BBF153
S214001CB0000F00F04B81A74B1C7898465CB9A648ED
S214001CC0067882463EB9A54E30681718B7F5806F7D
S214001CD005D982241C7020460BB0BDE8F08FDFF8D3
S214001CE0A0920968484407F025F8BBF1020F376058
S214001CF03DD0032FEFD99A4F3846FEF70BFE3B78C0
S214001D00D9F80020012B974B6BD19A426BD1BB6858
S214001D10DB0371D502232B70FFF756FC924B1A6833
S214001D20A2F17E63A3F58433B3F5104F0BD2126B8A
S214001D30A2F17E63A3F58433B3F5104F03D2936804
S214001D4003A900209847894B0398894F1860894B50
S214001D5000EA07024FF400611A60FEF795FD0028BE
S214001D603AD1FEF74BFD40BB2B78022BB3D182490C
S214001D70824F08783A68336810F0F70F894640F0CB
S214001D80B6807A490D681D4403F0030B1544794B61
S214001D900193A5EB0B0525F4FF65186825F00705EC
S214001DA085422CD9291A00F50060FEF76DFD019BCF
S214001DB020B3852488F800408DE74FF40061D0F802
S214001DC03490FEF761FD38B94FF4006109EA070068
S214001DD0FEF75AFD0028C7D0852388F800301C4639
S214001DE079E79A4208D0842388F8003098F80030C3
S214001DF0002B3FF470AFF0E78623F5E71D603168EF
S214001E003868A1EB0B01FEF751FA32683B6853497C
S214001E10A2EB0B020546134459483B60FFF7B8F89F
S214001E20002DC6D199F80030002B7FF454AF3B68E4
S214001E307F2B7FF750AF02A903A8FEF70DFA10B963
S214001E40039B89F8003099F8003013F0F70F3FF441
S214001E5042AF454D3B682968A1F17E62A2F5843207
S214001E60B2F5104FA5D2096BA1F17E62A2F58432BD
S214001E70B2F5104F9DD2D1F80C90414A0021084689
S214001E80C847002895D13B6833603A4B3D4F1860F1
S214001E903D4B7B602A68A2F17E63A3F58433B3F5DD
S214001EA0104F86D2936A39484FF40071984700283D
S214001EB07FF47FAF29683368A1F17E62A2F5843291
S214001EC0B2F5104F3BD2CD6A2D4A30483946A84766
S214001ED00546326821492A48FFF75AF840F203239C
S214001EE09D421ED040F201239D4226D1F3E61A44BD
S214001EF03A601D4A1168A1F17E62A2F58432B2F5FD
S214001F00104F12D2CD6A1E4A1E492048A8470546E1
S214001F10326812491A48FFF73BF840F203239D4205
S214001F2006D101238AF80030D5E640F20225EFE715
S214001F3040F201239D423FF475AF80243AE740F219
S214001F400225C6E70024C6E60D24C4E68124C2E6C0
S214001F50260B0020250B0020240B0020200B002041
S214001F609C010020EB17A6032808E10FBC150020F3
S214001F7000F8FFFFAC130020780100202C0B002097
S214001F8020070020300B0020A90F0000400B002087
S214001F90F8B504287BD8DFE800F00B0312A2A700F0
S214001FA08026402506230724002900F0848072E05E
S214001FB04FF400764FF4807508230924F4E70029CF
S214001FC076D04C4C636A13F0300F61D14A4BDB6B12
S214001FD0636ADD0705D5636A23F0300343F0100318
S214001FE06362042502230324424E3566434E33447F
S214001FF09B001F68002FFCD0002A48D03444A40061
S2140020002368002BFCD0022841D100293FD0394B51
S2140020105A6A12F0010F1A463FD04FF48062C3F896
S214002020A82020225A665A6A12F0300F0CBF4FF4CE
S21400203040024FF40002D3F8901032EA0101FAD1C0
S214002040520201D5D3F8A0302A4E012200210220E8
S214002050D6F89C70FFF79CFFD6F89030726A284B33
S21400206022F0300242F010027262C7F30A07316BA8
S214002070FA0903320F2A03EA010328BF0F223B4363
S21400208043EA0273336335662368002BFCD0F8BD41
S2140020900425022303240021A6E7536AD2F89030D1
S2140020A003F44003B3F5400FF8D1D2F8A030CBE7E5
S2140020B00826022303240F4901200E6600FA03F3C4
S2140020C0D1F890001842FBD1002AE0D00123094A3B
S2140020D003FA04F4D2F890302342FBD1D7E7012567
S2140020E0022600232C465FE720261025042305241D
S2140020F05AE700BF00400E4000300E408004F21049
S21400210000F8FF0F0048704700F0490200F00F008B
S2140021100138072848D8DFE800F0040F1947232DB8
S2140021204735244BD3F8943003F00703023B052BC6
S2140021303CD8214AD05C70471E4BD3F8803003F061
S2140021400703013B032B33D81C4AF3E7194BD3F89C
S214002150843003F00703013B032B29D8184AE9E72C
S214002160144BD3F8883003F00703013B032B1FD82A
S214002170144ADFE70F4B1B6F13F0010F14BF092043
S214002180072070470B4BD3F85C3103F03003202B4D
S21400219006D0302B06D0102B0CBF0720012070472E
S2140021A004207047082070470020704705207047BD
S2140021B00120704700400E40F28D0000F88D0000B0
S2140021C0FC8D0000F88D0000FEE70000044B054A79
S2140021D09A60D3F8882042F47002C3F888207047CB
S2140021E000ED00E0000000000D4AD2F8943003F045
S2140021F00703023B032B0ED8DFE803F0020F0F0B9A
S2140022000848D2F80031C3F304230133B0FBF3F0DF
S21400221070470548F5E70548F3E74FF40040F0E758
S21400222000400E4000F0490260F59000C0EA21012F
S214002230154B1B685B0670B504460E4622D4FEF7A7
S21400224079F9124B5B68C3F3014398421AD0104BDE
S214002250D3F80031FFF7C8FF022C054602D121460D
S214002260FEF798F9C4F1020210239340074A13615F
S2140022700EB1FEF75FF92CB921462846BDE870403E
S214002280FEF788B970BD00BF3C300E4000300E40EF
S21400229000400E40094B1B685B0610B50C460BD47D
S2140022A020B9074BD3F80031FFF79EFF21460020E8
S2140022B0BDE81040FFF7BCBF10BD00BF3C300E406D
S2140022C000400E4008B50146FFF720FF184B994224
S2140022D011D0184B994212D0174B994204D1174B84
S2140022E0D3F8800000F00700013803281ED8DFE886
S2140022F000F00A0A100D114BD3F88400F2E70F4BDA
S214002300D3F88800EEE74FF4004008BD4FF47A702B
S214002310FBE7FFF769FF094BD3F80031C3F300630F
S2140023205A1C01239340B0FBF3F0EEE70020ECE7E5
S214002330030020000500240002001E0000400E409E
S21400234000F47810B0F5A01F08B56AD021D8B0F513
S214002350202F07D00AD8B0F5003F57D0B0F5802F11
S21400236049D0A8BBBDE80840FFF73EBFB0F5602FD8
S21400237000F08180B0F5801F00F08580B0F5402F1A
S21400238026D1FFF731FF464BD3F81431C3F30423AD
S21400239038E0B0F5001F57D013D8B0F5D01F55D091
S2140023A0B0F5F01F38D0B0F5B01F11D13D48FFF79B
S2140023B089FF3B4BD3F8202102F00F020123934004
S2140023C021E0B0F5381F36D004D8B0F5101F50D035
S2140023D0002008BDB0F5401F41D0B0F5481FF7D12A
S2140023E03148FFF793FE07284DD008284DD0042823
S2140023F0EED12E48EDE7FFF7F7FE294BD3F80C3168
S214002400C3F308230133B0FBF3F0E2E7FFF7ECFE7B
S214002410234BD3F80831F3E72248BDE80840FFF71E
S21400242051BF2348FFF74EFF1D4BD3F8303103F062
S2140024300303D840CDE71B48FFF744FF184BD3F8FB
S2140024402031C3F30113F4E71A48E6E71948FFF70B
S21400245039FF134BD3F82821C2F30112AEE7154813
S214002460FFF730FF0E4BD3F82831C3F301231A1DB4
S214002470A4E70F48D1E71048FFF748FE072802D028
S2140024800928A5D16EE70D48A3E7FFF7ADFE044B7C
S214002490D3F80031C3F3042303FB000099E700BF21
S2140024A000400E4002001E00B800320000F0490254
S2140024B0050024000300200006000E00C0EA2101EB
S2140024C038B5C0F30323013B04460D46092B1AD842
S2140024D0DFE803F032221A19052528192B2F184B8E
S2140024E00022C4F3043442B11648D0F84411C90798
S2140024F003D4D0F840110A42FBD103F1047304EB75
S214002500C3039B001D6038BD0F48FFF719FFFEF799
S2140025104FF800220D4BE4E700220D4BE1E70122C5
S2140025200C4BDEE710220C4BDBE74FF480320B4BF4
S214002530D7E700220A4BD4E70022024BD1E700BFC0
S214002540B0400E4000400E4000250A00B8400E4045
S214002550C0400E40E0400E40E8400E40F0400E40C6
S21400256050410E402DE9F84F404E414D96F800A0E0
S214002570814688461746BAF1000F39D1FEF716F99C
S2140025803C4CA0F580502060FEF710F9A0F50060E6
S214002590606001213848FFF793FF21680820043166
S2140025A0FDF742FE23681B68834208BF2368616804
S2140025B008BFD3F804B001F104014FF008000CBFC7
S2140025C04FF0010AD346FDF72FFE63681B6883426F
S2140025D005D163685B685B4506D8002305E0BAF161
S2140025E0000FFAD1FF2300E001232B700123337084
S2140025F095F900305A1C28D01E4ADFF880A052F801
S21400260023600C3635464FF6FF7BC5F30A030833C6
S214002610B3F5006F19D2AB885B4516D0A879291D93
S2140026200430FDF701FE2B68EC888342E4B202D149
S214002630AB884B450CD0033404F4FE7408342544B0
S21400264086EA050313EA0A0FDFD0002038700AE096
S2140026503B78A342F9D3224605F10801404606F02E
S21400266069FB3C700120BDE8F88F00BFC015002054
S21400267010000020E406002000650A0000F8FFFFB6
S21400268008B5FFF7B1FD044BD3F80831C3F30823B0
S2140026900133B0FBF3F008BD00400E401128F8B53A
S2140026A005460C4611D104290FD100216248624E1E
S2140026B0FFF7F0FD05F00F05013D072D64D8DFE8B4
S2140026C005F011065F635D7D63880026F2E75B4DCB
S2140026D0013C092C58D8DFE804F06F585F5757665E
S2140026E057575755023C0A2C4ED8DFE804F0423FB5
S2140026F033394D4D4D4D4D0645000320052401222E
S2140027001146FFF745FC4E4D4B482F6C41F6713392
S2140027102B640021FDF71CFF0FB100232B640EB1C4
S214002720FDF708FF474B48485C67FFF709FEFDF7D3
S2140027303FFFFFF7A5FFFDF7FDFE444B5968C1F3C9
S2140027400141FDF727FFFEB930460121BDE8F840FC
S214002750FFF7A0BD3E48FDF72BFF02200446CEE75C
S2140027603B48FDF725FF01240320C8E7012003248A
S214002770C5E700200424C2E70724C4E7354DA7E7D1
S214002780354DA5E704232B60F8BD01221146002035
S214002790FFF7FEFB0223F6E7012211461046FFF77D
S2140027A0F7FB0123EFE7FFF76BFFFDF701FF2B4B6E
S2140027B001221A600323E6E70023E4E7072C04D08F
S2140027C0092CE1D11F4B012201E01E4B00221A67A3
S2140027D0DAE7013C072CD7D801A353F824F000BF52
S2140027E033280000892700008927000025280000DC
S2140027F0892700008927000017280000012800000C
S21400280003221049D1F85C3123F0300343EA021367
S214002810C1F85C31B8E7012211460420FFF7B8FB87
S2140028200122EEE7012211460220FFF7B1FB022249
S214002830E7E70022E5E700BF00F0490280400E40CF
S21400284000000E4000400E4000250A0000300E40FA
S2140028500148E80188400E4084400E400816C843F0
S2140028602DE98048A14B5B68ADB013F4806F24AFB0
S21400287018D14FF0005300221A603846FEF74AF887
S214002880FDF7BCFFA8B1446BFEF79EFE269B5E07D5
S21400289026D5FDF7B3FFFEF72DF80446FEF706FD36
S2140028A03CB134E04FF000531A68022AE1D100220E
S2140028B01A608F4B8F4E01225A64F36C1B0E37D171
S2140028C08D498E484AF6E8520A60026842F00402D1
S2140028D002600B608A4A136843F40053136029E0D1
S2140028E014B9FEF7E3FCE4E7FDF760FF8442F8D294
S2140028F0FDF75CFF04F140038342F2D82046FDF763
S2140029005DFF0028EDD063696BB9FEF7CFFCFDF7DD
S21400291075FF0446FDF772FF7A4B986023689D4664
S21400292063689847C5E79DF89030012BEDD1B0E776
S214002930012BCFD0744A136A23F4441343F488134C
S2140029401362A2F58042136843F4807313606F4BE2
S21400295002229A639A6B02F00F02022A40F0E88085
S214002960DA6C22F0405222F0010242F00102DA64F0
S214002970D3F8EC2042F44072C3F8EC20644A0F21EE
S2140029801180DA6E42F08072DA66624B186800B127
S2140029900420FEF7E5FB604B5C4DC8221A805F4BB7
S2140029A0A0220F2000241A80FDF710FD5C4BAB65BB
S2140029B0CDE91C4424947C60D6F86831C3F3072222
S2140029C0DBB226921E93EB6CC3F3017A2246534683
S2140029D039461CA8FDF762FDD5F8EC30C3F3012993
S2140029E022464B4625A91DA8FDF758FDDDF898C0E0
S2140029F01E9A1C9D2498DDF87480ACEB02014FF4FF
S214002A0016735943B1FBF3F32146259CD2184FF4B5
S214002A10167BA0EB050328BF01210BFB03F3B3FBDA
S214002A20FBF3ED18A4EB08032CBF4FF0010E4FF09C
S214002A30000E0BFB03F3B3FBFBF318EB03082CBFF2
S214002A4001230023944573D3002971D144456FD3E5
S214002A50002B6DD1A8426BD3BEF1000F68D12B4C72
S214002A60E36D23F4FE4323F0020343EA0223E36507
S214002A705046FDF77BFC00285AD001214846FDF75A
S214002A8075FC002854D0636E454538BF4546E72D93
S214002A9023F4FF7328BFE72523F0010343EA450329
S214002AA06366E36B43F48063E3634AF6E853606B64
S214002AB06363214623469A6FD507FCD41B6C194ADC
S214002AC013F0030330D0012313608B6FDC07FCD4B4
S214002AD00B6C23F003030B640C498B6F13F001039C
S214002AE0FBD10128136008BF4B631EE000500E4068
S214002AF000000E40B081E00F90310E4098310E403D
S214002B0064310E4000ED00E000400E4000300E4004
S214002B10EC0600208009C643EE060020F0060020E2
S214002B20372110B7B40AC6431360C74B01221A6098
S214002B30C64CDFF894931120FFF7E8FA0122002133
S214002B400220FFF725FA636A23F001036362C04B95
S214002B5000251D60A36A23F0070343F00603A36263
S214002B60BC4BE362226BBC4B02F07F6213432363D1
S214002B70BA4B636304211120FFF790FDD9F80030AB
S214002B80636AB748012143F04058FFF783FBFDF71F
S214002B90D1FCD9F80410B248C1F30141FDF7FAFCA4
S214002BA0AF48FDF705FD012211460220FFF7F0F9B8
S214002BB0C4F82480D4F8C83043F00103C4F8C83001
S214002BC0B36AA84E2CAA0424B36508A902F8984D47
S214002BD035200895FFF7C6FC06238DF81730089BAE
S214002BE08DF8164013F4803F9F4D0AAC00F05782D4
S214002BF0B36D8DF82830B36D8DF82930B36D8DF830
S214002C002A30B36D8DF82B30B36D8DF82C30B36D44
S214002C1063F03F038DF82D309DF82E3043F001030E
S214002C208DF82E306C60914B914A9A6000264FF4D6
S214002C308071C3E900221E8259618E4A8E4BDFF8EE
S214002C408C829A60C3E900225961202231463846B8
S214002C501E8206F07AF8FC2208238DF89320874A15
S214002C608DF8913025928DF8A13040F20172F8234C
S214002C70ADF89A208DF8A330814A824B27924FF008
S214002C800109384629938DF8989000F067FC7E4835
S214002C907E4B036031467E4B436000F0CDFC68A35C
S214002CA0D3E90023C8F80000CDE900234FF0FF3336
S214002CB04FF0FF3200F0E2FE02224FF0FF31D8F86C
S214002CC00000744C00F0E4FE734B2493394603F581
S214002CD00033D8F800002696259300F019FD21460B
S214002CE0D8F80000267000F004FF464630B12146B2
S214002CF0D8F8000084F8009000F0FBFE3068DFF89B
S214002D00D0A100F07BFF2178B5F90020306800F0F4
S214002D1035FC0146306800F0D7FE6C68002C40F0A9
S214002D20D8815046FDF766FCB37B64F30003B373AB
S214002D305A4B5B4CDFF89C815A4D4FF0200983F8C4
S214002D400193562283F80493002183F8069304F136
S214002D500A0083F8079383F8059383F8089383F8AB
S214002D601D9305F0F2FF5048504B4FF49072C4E9A3
S214002D700003328425234E4A6372012313702372A4
S214002D8000232CAAC8F800301B232B801E2302F831
S214002D909B3D14A93620FFF7E5FB2CAA394602F81E
S214002DA09C9D3920FFF7DEFB80BB424B9DF815202B
S214002DB018681B7924903B71002A00F093811B2A27
S214002DC028BF1B22531D8DF8143014A9531C0DF177
S214002DD095008DF8933005F0ADFF1CA8FDF70AFCB2
S214002DE0354A9DF814301288FA522CA99A1C51FACA
S214002DF082F2002102F8201C1C98BDF8741042F8DC
S214002E001F0C093322F81B1C8DF814302CAA202323
S214002E1002F89D3D1CA93A20FFF7A4FB48B9274BB2
S214002E201A889B788DF872300323ADF870208DF8E1
S214002E301330234B234800224FF002094CE000BF1A
S214002E4008354014000000009407C64300400E40BA
S214002E50A004C8432000050007450BD047A0020089
S214002E6000F049020050084088010020580E00205B
S214002E70700E0020580D0020400D0020108E00001F
S214002E80008E0000548E0000E0130020550D000058
S214002E90D4130020140000203C00940000E100E061
S214002EA0D40000207A010020D6BE898E55555500E4
S214002EB0700F0020088F0000188F00001B8F000086
S214002EC0D00600207C15002000300E40B0130020F5
S214002ED0B8130020AC030020C3E90022AD4B03600A
S214002EE080F80490FDF790F9AB48AC4B036080F88F
S214002EF0049010230372FDF7B1FDA948A94B0360A7
S214002F00A94B80F80490C36080F80890A0F8109051
S214002F10CDE900394B4690E806001430FDF750F92D
S214002F209DF81510002900F0EE8014A8FDF7C0FDEE
S214002F309E489F4B03604FF0100980F80490FDF701
S214002F4063F99C489C4A9D4B03604FF6FE7B082322
S214002F50C260A0F810B080F8049003720393FDF7E7
S214002F607DFD9748974A02600C220272964AC2601C
S214002F70A0F810B080F80490FDF770FD9348944ACE
S214002F80039B02604FF0020B924A80F80490C260E6
S214002F90038280F808B0FDF761FD8F488F4B036011
S214002FA08F4BC36080F804900123038280F808B03A
S214002FB0FDF754FD8B488C4B03608C4BC3604FF67B
S214002FC0FE73038280F8049080F808B0FDF746FD93
S214002FD08748884B0360884BC3604FF6FE730382B6
S214002FE080F8049080F808B0FDF738FD834B844ADB
S214002FF01A604FF6FF729A809DF81420202A05D892
S214003000931D637439467F4805F094FE9DF813209F
S214003010202A06D8931D84F839301CA97A4805F072
S21400302089FEFDF719FF237BB27B43F00103237370
S214003030237C02F0010203F0F00362F3861323748C
S214003040637C0BB906236374704BBAF80410B0683F
S214003050C4F81200998094F83830042161F3030311
S21400306062F3861384F8383094F8393013B906239F
S21400307084F83930664BB068BAF80420C4F83A00D1
S2140030809A80FDF745FF634C634B1B78002B7BD182
S214003090624A136923F00403136130BFF4E70DF1AD
S2140030A0170221462C20FFF75DFA00283FF4BBAD3F
S2140030B00DF1160207A93C20FFF754FA9DF82E30B2
S2140030C020B19DF81C2062F30003A9E560F300031D
S2140030D0A6E52068B060A288A3798AF80630AAF828
S2140030E0042025E60E238DF814300A238DF893303D
S2140030F04B4B1A68CDF895205A681B7ACDF8992064
S2140031008DF89D3069E6092145480FE7EFF31086F4
S21400311072B600231A460DF119014248FDF78EFDDE
S2140031203046FEF733F89DF8193013B10023C8F87F
S2140031300030D8F80020EFF3108672B6C2F501739F
S2140031409BB222440DF119013648FDF777FD034680
S2140031503046FEF71BF8D8F8000018440328C8F8D5
S214003160000011D9B4F8009009F1040398420BD37B
S21400317007D8608804284FF0000755D0062800F0CE
S214003180C3810023C8F800302648FDF791FA0028CE
S214003190BCD17DE71F8F000010050020228F0000A5
S2140031A0F4060020258F0000E68D00009C15002008
S2140031B0288F000068050020F1120000398F0000FB
S2140031C0C00500204A8F0000951C0000080400205F
S2140031D05B8F0000988E0000180600206C8F0000A1
S2140031E09F8F0000600400207D8F00006D090000A6
S2140031F0B00300208E8F0000910C0000D80600203F
S214003200D0060020EC00002014010020E60000207C
S2140032100E010020A8010020CC06002000ED00E0F2
S2140032200E8F0000400D002022796F8009F1FF33D9
S214003230082A9BB200F0DF801BD8042AB74E39D08C
S214003240062A4ED0022A1AD1022B40F05981B4F831
S21400325005700022B7F5007F28BF4FF400770323E0
S214003260114602203370A6F80170FEF70BF82F8087
S21400327087E7102A00F0F48003D80A2A70D00622C6
S21400328094E0122A00F09B80522AF8D1B4F8050088
S214003290FDF77CFB00283FF474AF037B5B077FF5EC
S2140032A070AFA9F1030292B29D49B4F80500FDF78C
S2140032B0BBFB66E7042B79D1B4F80570B8B2FDF70E
S2140032C065FB58B1027A41687780022A14BF022350
S2140032D0012305203070737003205FE06F800A22A0
S2140032E064E0DFF840B2B4F80500B4F80710CDF893
S2140032F040B04FF00203A9F107028DF8443092B2B5
S2140033000BF102030093019210AB0CCBFDF7E0FC2F
S2140033104FF6FF7A5045814604D16368C3F30F2306
S2140033206B80DCE7CDE900774FF002038DF8343090
S214003330CDF830B001300CAB0CCB514680B2FDF767
S214003340C7FC50451CBF00F1FF3080B20723337026
S214003350A6F80190A6F803000022114604201DE0FE
S214003360022B40F0CD80B4F80500FDF70FFB0028D7
S2140033703DD0037B990714D52B882CAA013B22F855
S2140033808C3D10A9B4F80500FDF728FB024648B9A5
S214003390624BBDF824200B2119701099FDF772FFBF
S2140033A0EFE602226368C3F30F236B805B4B207942
S2140033B06988587001261E7059801A71CCE7B4F8D7
S2140033C00500FDF7E3FA90B1037B1A0711D5A9F1C2
S2140033D0030292B25249B4F80500FDF725FB0246F7
S2140033E00028DFD14D4B132119700146D6E7012284
S2140033F0D8E70322D6E7A9F1050B1FFA8BFBBBF132
S214003400020F02D0BBF1100F7CD1464BB4F805007A
S214003410B4F8071010930023CDE900338DF844B0BC
S21400342010AB0CCBFDF754FC4FF6FF7398420646E4
S2140034303FF473AF2B882CAA043B22F8963D09A9CB
S214003440FDF7CCFA024608B16E80AFE7334BBDF805
S2140034501A205E8009211970911C597009993BE762
S214003460A9F1050B1FFA8BFBBBF1020F02D0BBF1D3
S214003470100F47D10027B4F80500B4F80710DFF89E
S214003480A4A0CDF840A0CDE900775FFA8BFB8DF8BD
S21400349044B010AB0CCBFDF71BFC4FF6FF7948454C
S2140034A006463FF43AAFCDE90077CDF838A08DF860
S2140034B03CB001300EAB0CCB494680B2FDF708FCA1
S2140034C02B882CAA4845A3F10603074622F8963D0A
S2140034D018BF00F1FF3709A9304618BFBFB2FDF785
S2140034E07DFA02460028AFD10C4BBDF81A205E804C
S2140034F011211970111D59709F80099905204DE7FB
S214003500042253E7024651E7074B109310A9022303
S214003510CDE912771193FDF78DFE32E67E0100208D
S214003520AF010020B101002011000020FEE70000DE
S21400353008B5FEF74BFE064B0649074A8B4201D3F9
S214003540FCF704FE52F8040F43F8040BF6E700BF3E
S21400355010000020B4000020E4AB000038B504469C
S21400356000F0DCFA0FCC044D0FC594E80F0085E898
S2140035700F00002038BD00BFC818002047F6FF73B4
S2140035809A4270B552D0022952D82A4B13F831000D
S21400359001281D464FEAC1010CD10B44D8780138EA
S2140035A000B220B1596831F910109142F7DC0130B1
S2140035B0C0B270BD0B4458680028FAD0B0F900407D
S2140035C0944204DBB0F902409442B8BF1446294442
S2140035D028224978A4F1C80393FBF2F35B424A1E03
S2140035E01BB29342A8BF13464FF47A7600EBC3058E
S2140035F00133EA88AD681BB214FB025222EAE2727B
S2140036008B4202F5FA72B2FBF6F204DA00EBC3055F
S214003610AD889542EAD200EBC30333F8040C90421F
S21400362028BF1046002808BF0120C1E7FF20C0E7DA
S2140036300020BEE7C818002070B50E46044678B1D4
S214003640084D2B7863B9084B186000F03BF83146FC
S214003650204600F027F8031C18BF01232B7070BD0E
S2140036600020FCE7EC180020E81800200846114669
S21400367000F03CB800B10C3003F03CBE00B10C309A
S21400368000F00ABA7047431E012B03D9031F5842A5
S214003690584170470120704708B502F0C1FF012865
S2140036A0FBD108BD38B504460D46002100F00AFAE5
S2140036B02946204603F09AFC00280CBF204600202E
S2140036C038BD000010B5044602F062FF44B1054A5A
S2140036D0D4F88030002B08BF1346034A136010BD91
S2140036E0636FFFDE853600001C00002010B50C4618
S2140036F002F070FF1CB1BDE81040FFF7CDBF10BD53
S21400370000B10C3003F0F2B800B10C3003F006B98B
S21400371000B10C3003F0CCBCC36E2DE9F74F044665
S214003720884613B103898B425AD0D4F86890B9F111
S214003730000F59D0D9F80830002B55D0D9F80C30E6
S214003740002B51D00027A4F10C03D4F87CB00093D2
S214003750BA463E4647F6FF73D9F80C20524502D8C3
S2140037607EBB01203DE0D9F80850182202FB0A551E
S214003770EA89424520D82A8A42451DD3B5F9122047
S214003780BBF1000F0AD0B4F9F610914208DC2E46C1
S2140037900023324619462046D84715E09A420ED0F6
S2140037A094F8A81000980193FFF7E8FE019B0746DF
S2140037B02279BA422E4604D90AF1010ACCE7FF273D
S2140037C0F6E7BBF1000FE3D104F1B80332464146F9
S2140037D0204603F050F9A4F80880E66684F8B47032
S2140037E0002003B0BDE8F08F0320FAE72DE9F04F84
S2140037F0544DDFF85C8185B004468A4691468DF8C4
S2140038000F3003F06FFE2E8803F08AFE019588B114
S2140038100023C8F8003003F07BFEE36ED8F80020E3
S21400382093420DD163B156450AD10025284605B00E
S214003830BDE8F08FB9F1000FEFD0C8F80000ECE754
S21400384002F0EEFE012804D0012002F0C3FEFFF7CE
S21400385023FF3D4802900368D4E91A12002B62D079
S2140038608B424CD1D8F80000002848D0904246D170
S214003870B6EB0A064FF0000718BF01263D46D4F8FF
S2140038807CB0BBF1000F55D1217994F8B4309DF887
S2140038900F20994228BF1946204603F09CF8BDB970
S2140038A0029AA36E1360E36EC8F80030B9F1000FF9
S2140038B002D10EB9002FB8D0019BB9F1000F14BF8A
S2140038C0494639462046C3F800A003F005F90546E8
S2140038D0B9F1000F01D1002FA8D0B5FA85F0332139
S2140038E0400900F073F99DF80F10204603F0F0FA37
S2140038F0164BE16E1B68A4F10C00984796E71D680E
S2140039008DB1086885420ED1D8F80010126811B142
S214003910096891420AD05968204603F0CDFA01277B
S21400392005460026ABE712680968F5E7002601277A
S2140039303546A4E700220DF10F0311462046D8476E
S214003940ADE700BFF0180020F41800201C0000208F
S214003950F8180020F8B505460E46FDF7E3FB31469D
S21400396007462846FFF7D8FE044630B90346024607
S21400397031462846FFF73AFF04463846FDF706FC70
S2140039802046F8BDF8B50D1C18BF01250E460746A3
S2140039901F21284600F01AF90024304600F0A4F94A
S2140039A01F21284687F8C440C7E91A6400F00EF9BC
S2140039B0F1684FF6FF721820E3B28B420BD3154620
S2140039C00A4A002313600A4A294638461360FFF75E
S2140039D0C1FF2846F8BDB56800FB0353DD89954254
S2140039E002D2002DECD02A460134E5E7F418002078
S2140039F0F81800200089704738B50A780546104642
S214003A000C46FFF740FE88B149780846FFF73BFEB4
S214003A1060B10A43520709D402F002FE430707D4F6
S214003A2021462846BDE8384002F092BF012038BD46
S214003A300220FCE700B10C30FFF7DEBF38B50546C4
S214003A4008780C46FFF71FFE80B14A781046FFF74D
S214003A501AFE58B1042A09D002F0E2FD830707D403
S214003A6021462846BDE8384002F080BF012038BD18
S214003A700220FCE700B10C30FFF7E0BF30B4DDE910
S214003A80024500B10C30CDE9024530BC02F030BD35
S214003A9000B10C3002F080BE70B504460D461646E6
S214003AA002F0BEFD01280BD129462046FFF752FF43
S214003AB038B9324629462046BDE8704002F0E0BDDF
S214003AC0022070BD03F034BD38B5044600200D4614
S214003AD000F008F94CB1D4F8883043B9294604F10F
S214003AE00C00BDE8384002F095BFE36FFFDE022011
S214003AF038BD38B5044648880D4600F0F3F84CB19A
S214003B00D4F8883043B9294604F10C00BDE83840A3
S214003B1002F03CBFE36FFFDE022038BD00F0E3B8E2
S214003B2038B505460C46FDF7FDFAA9696B690C40E9
S214003B3023436B61FDF72AFB00200CB9002138BD3A
S214003B408021FCE700B10C3003F00DB900B10C3059
S214003B5003F023B907B502AA4FF4007322F8023D1A
S214003B600749FFF7F3FFBDF80630B3F5007F05D130
S214003B70022808BF002003B05DF804FB0120FAE726
S214003B80FC1800200846114603F012B800B10C30AD
S214003B9003F0D6B838B5154658B100F10C0411B18B
S214003BA0204603F011F935B12046BDE8384003F051
S214003BB057B90446F3E738BD024B1960024B18604C
S214003BC0FEE700BF200000202400002008B528B92A
S214003BD0034B1960034B1868FFF7EEFF08BD00BFE4
S214003BE020000020E818002010B5044603F0E6FC8C
S214003BF020460321BDE8104002F0D6BC00B10C30D0
S214003C00FFF7F2BF10B54378044643B102F008FD53
S214003C10012804D12046BDE8104003F0BBBC0220BA
S214003C2010BD00B10C30FFF7EDBF10B54378044669
S214003C3043B102F0F5FC012804D12046BDE810404F
S214003C4003F094BC022010BD00B10C30FFF7EDBFAE
S214003C5070B51E46437805461446D3B191FAA1F1D5
S214003C60080A02F091FEE30703D5284603F0AFFCEE
S214003C7068B1AA20214603F0B3FC9DF8102044202A
S214003C8082F00102314603F0D9FC002070BD5520B9
S214003C90F0E70220FAE710B49DF8044001940C30D7
S214003CA05DF8044BFFF7D4BF431C08D0044AD2F893
S214003CB03C311B0C1B0480B20343C2F83C317047F6
S214003CC00040084010B504460846FFF7EDFFE36ED7
S214003CD033B15B6923B14A1C08BF6FF0010119605C
S214003CE0002010BD70477047044B5868431C14BF33
S214003CF0C0F3807001203121FFF768BFB081E00F6C
S214003D0038B50D46044600F025FFAC4042F210716F
S214003D1064094C436423B0FBF3F0B4FBF0F038BD09
S214003D20034B1A6802609B8883800020704700BFA0
S214003D302E0000200B4B5B88B3F5E16F95BFC823C0
S214003D405A237822502298428CBF172310230B70D8
S214003D50054B1B7823B1904294BF0020012070478A
S214003D60184670472E0000202C00002037B51E4B4A
S214003D701B78032B044634D00DF10701FFF7DAFF5A
S214003D801E2C8CBF19491A499DF807204FF00103D5
S214003D900B608CBF01240024164950B1164B4DF61B
S214003DA001751D60120203F1007342F440421A606E
S214003DB08A810A7C22F00102024322F0020242EAD1
S214003DC04402D3B20D4A0B74127852B923F004039E
S214003DD043EA800323F008038A89CA8143EAC403BE
S214003DE00B7403B030BD00BF2E000020084108460B
S214003DF008410844D81F002104410844FE1A002048
S214003E000A4B0B4AD3F88831DB4303F4FE1343F422
S214003E100053B3FA83F3C3F1FF2303F57F03F233B2
S214003E20C3EB4313013B1370704700BF00400E40C6
S214003E3036000020044B00281B780CBF042000200E
S214003E401844C0B2704700BF3600002030B51F23AC
S214003E504FF0FF34B0FBF3F35D1CC3EB4313AC40F1
S214003E60C01AE443C0B2E4B201301460086030BD4A
S214003E702DE9F3411646404A404C1268404F144024
S214003E803A78012A054688461AD144EA006488F83A
S214003E900000002333607B88B3F5E16F8CBF5A23A4
S214003EA0C82324F47F549D4224F008049ABF200AB5
S214003EB000F47F5043F6C870204302B0BDE8F0819E
S214003EC0304A1278904228BF1546002B14BF0423B0
S214003ED000232B440B70002D2FD12B4B33606A46EA
S214003EE0284601A9FFF7B2FF009A284B01981B78D5
S214003EF098F800C044EA823444F47F5444F008043E
S214003F0044EA0064FBB122493878224BB2FA82F2C6
S214003F10C2F11F02022818BF0B46511C17D09B5C2B
S214003F20D8B2316821F07F433360BCF1000F10D166
S214003F3043F0306343F00403ACE74FF03063013DD9
S214003F403360EDB2CBE7FF204FF0FF32E9E7FF200A
S214003F50E7E7013203D0421ED2B2FD2A06D921F08D
S214003F607F4323F0040343F07F4393E743F00403C7
S214003F7043EA00638EE700BFD81F00213F00C0E081
S214003F802E000020360000200400000BFF1A002040
S214003F90B883E00FB083E00FF7B50446C820FFF7FC
S214003FA0E5FE284B284D1B78032B01D0FF2C03D1B0
S214003FB0FF20287003B0F0BD012B28D1072C204627
S214003FC028BF072001284FF0000301AA0DF10301C6
S214003FD038BF0120FFF74CFF06461C4B1C4C019ACD
S214003FE0C3F8582126609DF803002870FFF7BEFE30
S214003FF0019A130203F4E06343EA1263154A23812D
S21400400012780AB9666063819DF80300D2E78BB91F
S214004010042C11D81F461846201A01AA0DF10301D8
S214004020C0B2FFF725FF4FF48003064647B10A4AA1
S2140040301360D2E70023EDE701231F460420EBE7D9
S214004040064AF5E72E0000202D000020004008401C
S214004050D81F0021FE1A00200841084608410844DF
S21400406008B500F045FF094B094A002814BF18465A
S2140040701046036823F47F125B0803F4FE13134311
S2140040800360044B4FF00072DA6108BD004108403F
S214004090184108400040084008B500F029FF4FF4DA
S2140040A0001330B1044A1360044B4FF000621A60EC
S2140040B008BD034AF7E700BF004108442040084413
S2140040C018410844014B1868704700BF001B0020C9
S2140040D070B505460E46C0B201F00F01FFF710FEA0
S2140040E0C6F303110446C5F30720FFF709FEC6F31F
S2140040F003210444C5F30740FFF702FE204470BDC9
S214004100434B1B682DE9F047D0F80851DFF82081B3
S214004110404F414E03F4E073A3F5C072002D08BF74
S21400412001258146504250413C4A1168A9423C490B
S21400413010D10C7884420DD199F8A8C098F80040A8
S214004140A44507D199F805C03C78A44502D1B088AB
S214004150BDE8F087B3F5C07F1560087054D099F8B5
S214004160A830022B47D12F4B1B78002B14BFC82436
S21400417096240F212046FFF7C3FDB5FA85F3B0FA63
S21400418080F29B1A002BC4BFC3F10F0AD840264BFF
S214004190D8BF4FF00F0A85424FEA0440C3F8BC0070
S2140041A003F1806303F1B80340F6FF7238BF0AF1EB
S2140041B0FF3A1A6003F100734FEA0A211960FFF70D
S2140041C087FFB08000F0C6FC04FA0AF44FF4FA73D6
S2140041D05C4341F66A03B0FBF3F0144BB4FBF0F417
S2140041E00A2044431C6099F8A83088F8003099F8F3
S2140041F005303B70ABE7012B08D00A4B1B78002B31
S21400420014BFF024B424B4E70024B2E73224B0E7A5
S21400421018600840340000202E00002028000020EF
S214004220FC1A0020FF1A002000600840001B002037
S21400423035000020FF280BD00D4B0E4A1A600304F1
S214004240000503F4E02300F0F87018430A4B1860EA
S214004250FF290BD0064B40F2F7121A600B0103F44D
S214004260F87301F007011943034B1960704700BF4C
S214004270504108440000F7015041084608B50D4B70
S214004280186800B10C3000F023FE092810D80A4B3D
S21400429001281B5C05D1094B1B78012B14BF042396
S2140042A0442303F00F011809BDE80840FFF7C2BF1A
S2140042B0FA23F6E7E8180020DC8F00002E00002026
S2140042C070B5054600F014FC142200213448354C25
S2140042D0354E04F03AFD2A78344B022AD3F888315A
S2140042E02BD113F4001F37D12B682360AB88A38033
S2140042F0C8202B4DFFF73AFDFF232A6833702C4B5E
S21400430013402278022A2DD12A4A4FF4EE4111603A
S21400431002F100724FF48A41116043F0804301219C
S21400432042F8041C2B60244B03221A60FFF7A6FFFA
S214004330224B01221A70002013E0012A02D113F446
S214004340400FD0E742B91E4A526AD24302F0010239
S21400435003F480031343C6E703232370FF2333705D
S214004360012070BD012A17481749184A4FF0070464
S21400437009D10460062008601549116043F0030364
S2140043804FF44041CCE7046005200860C02111606E
S214004390104A43F08043812143F004031160C1E7D3
S2140043A0D81F00212E0000202D00002000400E40C7
S2140043B02800C0A02441084458410844FD1A0020A3
S2140043C0B081E00F0C4108440C41084608410844FF
S2140043D0C1004000084108462DE9F84F2F4F304BEA
S2140043E03B6000F0B7FB4FF4FA734FF47A76DFF8D1
S2140043F0C880B0FBF6F56B434FEA032A4FEA136B0F
S2140044001AEB08004FF000094FF00003254A4BEB6B
S214004410090103F0E9FEA0F580730446BB6218B9F3
S2140044202B21FFF7D3FB012406FB04F200275608D6
S2140044304FEA0528B8193B4648F1000103F0D4FEC0
S214004440194B1960194B4FEA046881468A46186072
S214004450240A25B928462B21FFF7B8FB01254FF47F
S2140044607A73A8FB036703FB04776C08301947F1DF
S21400447000012A46002303F0B7FE0D4B074A1960D9
S2140044800C4B19F1020618604AF10007B30843EA1C
S2140044908773013B1363BDE8F88F00BF00500840E8
S2140044A00011010040420F00101B00200C1B0020D2
S2140044B0081B0020041B002020A10700044B4FF01F
S2140044C00052C3F880211A60024B01225A607047DE
S2140044D000E100E000500840824210B5A3EB010165
S2140044E0A2EB000404D2064B1B6B01331C440139BB
S2140044F0002201F0030342EA0400194610BD00BF83
S21400450000500840054B0201134401221A604FF484
S214004510807303FA00F0024B586670470051084457
S214004520005008401030034B0001185800F00100FE
S214004530704700BF00500840103001F460010001D1
S214004540024B41F003011950704700BF005008406D
S21400455038B5FCF717FE094A094B9D69147C094AD1
S2140045601268E4B20AB19D690134FCF741FE0022EC
S21400457004F0030342EA0500194638BD291C002052
S21400458000500840880B0A4308B5222000F0F4F9D2
S214004590024B4FF480225A6008BD00BF005008400E
S2140045A00A4B2DE930481C68094B1D684443A5FB9F
S2140045B000BC04EB8174002105FB01CC1BF100421A
S2140045C04CF10003E018BDE8308800BF081B00204F
S2140045D0041B002008B5FFF7BBFFBDE80840FFF747
S2140045E0DFBF10B50446FFF7B3FF844202D90030A0
S2140045F041F1FF31002201F0030342EA04001946AC
S214004600BDE81040FFF7CCBF104B11491B68096B83
S2140046102DE9304820F040424FF000440025E2FBF0
S21400462003450C4B1B6803FB02528A4214464FEAB2
S214004630907304D901310133541A03F003034FF089
S214004640000B4BEA04001946BDE830880C1B00201E
S21400465000500840101B00202DE9F74F154606466F
S2140046608B46FCF75FFD07463046FFF74BFF022DF3
S21400467004D13846FCF78AFD012014E0FFF768FFF6
S21400468081460191FFF78CFF012D04BF0BF101035A
S21400469000EB030BA0EB0B00B0F1804F06D23846C0
S2140046A0FCF774FD002003B0BDE8F08F4549DFF845
S2140046B028C10C6FC96E06F1090224F0E00401EA75
S2140046C00C0C1002E404120621F0E00142F48032E1
S2140046D040F00100E40CC90484420CBF042400240A
S2140046E0C90C944508BF44F00204884208BF44F051
S2140046F0010414F0010A18BF334A584618BFC2F81E
S21400470000B0FFF781FF022E08BF304A0B4608BFF5
S214004710C2F800B08046024601994846FFF7DCFE24
S2140047202B48C9B2815581B1BAF1000F03D0294B8D
S21400473041F61F721A60A30742BF264B264A1A602C
S214004740610742BF1F4B00221A671E4B03EB06127F
S2140047501121C2F80C8106F110021201A8EB09081B
S21400476099509A69D96DA2EB0909C84581D84FF4CA
S2140047708072B24011427FF47CAF815D09B11A6647
S21400478077E71DB93046FFF7BDFE88E71A66BAF12F
S214004790000F08D00F4B114941F61F7240F201106E
S2140047A01A6008601A60A20706D50A4B0B490A4A27
S2140047B00B481A6008601A60630742BF094B012263
S2140047C09A6056E7005008401C1C0020201C002061
S2140047D0241C00206C50084400001F1F6C50084624
S2140047E0000001010040084038B504461546FFF7B2
S2140047F089FE04F10903054A1B0243F0010313670F
S21400480020462A46BDE83840FFF726BF005008403D
S21400481038B504461546FFF775FE04F10903054A48
S2140048201B0243F00113D36620462A46BDE83840F3
S214004830FFF712BF0050084038B504461546FFF78C
S21400484061FE0948C36E23F0F85323F4F81304F10D
S214004850090243F4803343EA0263C3662A462046CD
S214004860BDE83840FFF7F8BE0050084038B50446AB
S214004870FFF7B0FE0546FFF7ADFE401BA042FAD399
S21400488038BD000038B5344B344C082205461A6053
S21400489001213348FDF714FE324B1D702378013B8F
S2140048A0012B0CD8237CE07B01229A400C2130237C
S2140048B013FB001303F1884303F520431A602A4BC9
S2140048C000225A67002D40D06368002B33D000F0DA
S2140048D041F9626800EB5203B3FBF2F3013B1B02A3
S2140048E043F0F8032278022A27D0032A29D0012A87
S2140048F02ED143F0020307221C494FF6FF700860D2
S21400490001F100710B60184B5A6753070CD5237CD6
S214004910E07B01229A400C21302313FB001303F1A5
S2140049208C4303F520431A604FF0804395B1104A3C
S2140049301360002038BDF823D4E743F001030522B6
S214004940DAE743F005030122D6E72A46F823D3E741
S2140049500022D1E7074AEBE7C8400E46181B0020A6
S21400496000350A00141B0020000008407C000844A4
S2140049709440084694400844044BD3F89430002BE7
S214004980BCBF034BC3F88000704700BF0040084020
S214004990000008404FF0006310B1024A13607047F1
S2140049A0014AFBE7944008469440084408B5064B85
S2140049B006491A684FF00450920004F0BBF9BDE8AF
S2140049C0084000F0E9BB00BF44A7000014900000B8
S2140049D0C0F30062034B33F8123080B240EA034063
S2140049E0704700BFE68F000007B501A8FCF79EFBE6
S2140049F0154B164AC3F8442148F2E672C3F838212C
S214004A004FF40862C3F83421114AC3F8A020114AB3
S214004A104AF63F41916002F580424FF0C0719162C4
S214004A200022C3F8FC200C4AC3F89C2003F18063E4
S214004A30A3F6DC737F221A6003F1007323221A6048
S214004A4003B05DF804FB00BF00400840C0E65351C9
S214004A507A27000F00300840806D630330B50A4B9C
S214004A600A480B4C0B491A6842B102EA0005A542F7
S214004A7004BF5D68156008338B42F4D1064BD3F84B
S214004A803C21064B1A6030BD0080E00F0000FFFF9F
S214004A9000000840B081E00F004008403C000020C5
S214004AA00F4B002210B5C3F88820C3F88C20C3F83B
S214004AB090200C4A012111605A6812F0706FFBD1E9
S214004AC04FF00452DA6702F5FD5201241032C3F8A3
S214004AD080401A66044B1B689847044B1C6010BD48
S214004AE0004008400C400846380000200C400844AF
S214004AF0034BFD22C3F8C8200122C3F8CC20704720
S214004B0000400E4008B5FFF7F3FFFFF7A7FFFFF7DB
S214004B106BFF0C4B03221A600B4B4FF4C012C3F80A
S214004B20942003F1C063943301221A6000F02EFB38
S214004B30064B4FF460721A60054A4FF040731360DC
S214004B40936108BDD8600846004008400C400846FF
S214004B50F840084608B5FDF747FB044BD3F810317C
S214004B60C3F308230133B0FBF3F008BD00400E404A
S214004B70F8B5044628B102F02DFD012521684B1C2E
S214004B8000D1F8BD0846C1F30746FFF721FF012E06
S214004B9003460CD9B600A1192246031B9F1852F8EB
S214004BA0040F38608A42F9D104363444E6E7090F28
S214004BB0606808340729E1D8DFE801F00A04081124
S214004BC00C0F1417C04303F1806301E01A685040CD
S214004BD01860D3E7FFF74AFED0E705FA00F003F1C6
S214004BE0C063F5E705FA00F0EDE71A6830EA02025E
S214004BF0FBD1C3E708B5FFF7ADFF064A126D0346C3
S214004C0090B228B1C2F30742DB085343B3FBF0F07F
S214004C1008BD00BF0060084010B50446FFF7EAFF75
S214004C20C4F30113022B05D0032B09D0012B00D1AE
S214004C30400810BDC4F3C4240134B0FBF4F0F8E718
S214004C408008F6E700F03003202B10B512D1C0F331
S214004C5002441CB1C0F3C423B3FBF4F410F4C01F29
S214004C6018BF64006408032C28BF0424FFF7D4FF91
S214004C70604310BDC0F38213012B01D0042B01D179
S214004C800224F3E70124F1E72DE9F8431A4EDFF892
S214004C9070800746B146FCF745FA7568D8F80830C4
S214004CA09B09C3F309049B05D9F80430C3F30363D7
S214004CB048BF6FEA8454A3F1020348BF6FEA9454D6
S214004CC0012B24B211D8C5F30365023D012D8CBF1C
S214004CD000250125FCF75AFA14F5007F07D10DB11F
S214004CE0002FD8D12046BDE8F8830025F2E7034B15
S214004CF0002D08BF1C46F5E70040084000FEFFFFF9
S214004D0000700840024B012218619A60704700BF8D
S214004D1000200840084B10B5D3F8702118B902F0EF
S214004D200F0010BD22465968D3F87041A242F9D14F
S214004D30C1F303630370F2E700400840024B1B68B0
S214004D4003B11847704700BF2C1B002030B5164C27
S214004D50164A2568164C936B246805FB0343146BB0
S214004D60144A154D1268E4024CBF9B189B1A134C4C
S214004D70134AB3F1804F88BF1446124AB3FBF2F2CF
S214004D802A445278D3400B600F49B3FBF1F10D442F
S214004D901203697803EB540342EA8122B3FBF4F36F
S214004DA0013B1343036030BD301B00200030084039
S214004DB0381B0020341B0020EA8F0000E067350017
S214004DC0C0CF6A0040BE4025401B5F1338B505467D
S214004DD00C46FDF797F9024618B92B21FEF7F6FEAA
S214004DE00122B5FBF2F3642002FB13556843B0FBC7
S214004DF0F2F000B9013B5A08013A01335B08072A72
S214004E0003F1FF330D4903D8072B01D89AB993B99C
S214004E10002008700A4809780625056009480078C9
S214004E2021B118B108490220086000201B0243EA9D
S214004E300213236038BD0120EBE700BF3D1B0020B6
S214004E40944008443E1B00209440084638B5154D53
S214004E502B780C4623B9144B1B6D03F03F032B70C5
S214004E60124BD3F894305B061AD5114BB0FBF3F017
S214004E7040F24D534343A3F546430C3B584300F5DD
S214004E80C91000F5556018B92B21FEF79FFE0120CA
S214004E902A78084B5343B3FBF0F02060002038BD5F
S214004EA00220FCE73F1B002000300840004008407E
S214004EB000366E0180969800014B1868704700BF58
S214004EC0381B0020014B1868704700BF301B0020BD
S214004ED0064B1B68C3F3C20203F0070002B150433F
S214004EE0C3F3821303B15843704700BF3430084001
S214004EF0034BD3F8380180F01000C0F30010704761
S214004F000040084061B1074BB3FBF1F3984207D36A
S214004F10054BB3FBF1F188428CBF0020012070479F
S214004F200020704700371789007DDAAC2DE9F0477E
S214004F30894614469A46DDE90886FFF7C9FF054606
S214004F4001464846FFF7DEFF20B90E21FEF73EFE7B
S214004F50022033E0FDF7D6F80746002DF8D00028EB
S214004F60F6D015F1FF3318BF0123CAF800301E4BE8
S214004F701B68C3F3130300EB5502B2FBF5F2A2FB6A
S214004F800301C20C194B42EA41321A60184BC3F8AF
S214004F9000900A9B09FB05F11960164B1C60164B26
S214004FA09F420DD1154B6C43A1FB0301A4FB0345A7
S214004FB08A09AB09C8F8002033600020BDE8F087F6
S214004FC03A460023C804490B03F00EF9C8F800005F
S214004FD0E004630BA0FB050105FB03113A46002322
S214004FE003F002F93060E8E730300840341B002058
S214004FF0381B0020301B002000F049020A3BB2DFBD
S2140050001FB501A902A8FFF7A1FE0B4B43F6FF52FE
S2140050101A6003F10073029A1A6003A90198FFF759
S214005020D5FE064B4FF4EE621A60039A03F1007346
S2140050301A6005B05DF804FBA440084430400844FC
S21400504038B50D4B05460C465868C0F30360042877
S214005050FAD00A28F8D0B0FA80F00F214009FEF7FF
S214005060B5FD064B9D631CB103F5805380229A6004
S214005070BDE83840FFF7C4BF004008400030084095
S21400508038B5154B154C164D4FF40022B0F1804F35
S2140050908CBF20461846134B2A601B68D3B1124BB0
S2140050A0124C1B6F00F5F42000F59070B0FBF4F482
S2140050B0033CE4B203F00703A34202D02046FCF709
S2140050C04FF80B4B1B782BB10A4B4FF4702224047D
S2140050D01A602C6038BD00BFE0673500C0CF6A009C
S2140050E0944008468009C64300300E4040420F00F8
S2140050F03C1B00209440084430B5134B0446186807
S21400510087B000B10C3005AB0293104B0193103BF7
S2140051100093D4E9001204ABFFF708FF054668B910
S214005120049A10236AB10A4A13600A490598FFF7E1
S2140051308DFEFFF765FF2068FFF7A2FF284607B041
S21400514030BD054AF0E700BFE81800203C300840B4
S214005150384108465030084038410844034B012285
S2140051601A70034B1868FFF78BBF00BF3C1B00206C
S214005170381B0020034B00221A70034B4FF400220A
S2140051801A6070473C1B002094400846014B4022A2
S2140051901A6070479440084670B5104C0FCC86B025
S2140051A001AD0FC5B42223680D482B60002103F023
S2140051B0CCFD7C2200210B4803F0C7FD0A4B0B4AAE
S2140051C05A6002F075FD0A4B1B782BB101AD0FCD6E
S2140051D0024E0FC62B68236006B070BDD81F002194
S2140051E04C1F0021D01E0021EC1F00213F0037007D
S2140051F0FD1A00202DE90048FBF794FF134B1978A1
S214005200E9B9134BD3E900234FF0000C02F4084B26
S2140052105BEA0C0313D10F4B10221A600C4BD3E938
S21400522000234FF0000C02F4807B5BEA0C030BD1EA
S214005230084B20221A60BDE80048FBF7A7BF064BC4
S21400524010221A600029E9D0034BF2E7511B002018
S214005250481B00209440084494400846044B002213
S2140052601A70044B197811B11A70FFF7C3BF704754
S214005270521B0020511B00200D4A0E4BA020D3F8D5
S21400528088101060102042F8880C0B484FF000720F
S21400529002600A488906426608D502F11F224C328F
S2140052A01269B2F5817F24BF80229A60704700BFE2
S2140052B088400844004008406850084400500840B1
S2140052C008B5FBF72FFF0A4B5B68C3F30363032B9A
S2140052D006D1084A136823F0F00343F0E003136096
S2140052E0054B40F201225A62BDE80840FBF74EBF6C
S2140052F0004008404C1F00210000084008B5FBF79E
S21400530011FF244B4FF08052C3F88020BFF34F8F1D
S214005310BFF36F8F4FF48072C3F88020BFF34F8FB8
S214005320BFF36F8F0222C3F88020BFF34F8FBFF307
S2140053306F8F1022C3F88020BFF34F8FBFF36F8F9D
S2140053402022C3F88020BFF34F8FBFF36F8F4FF03C
S2140053500052C3F88020BFF34F8FBFF36F8F8022B9
S214005360C3F88020BFF34F8FBFF36F8F4022C3F880
S2140053708020BFF34F8FBFF36F8F4FF00042C3F80C
S2140053808020BFF34F8FBFF36F8FBDE80840FBF759
S214005390FDBE00BF00E100E02DE9F84F0A9E0B9F1E
S2140053A08046894602EA000A03EA010B3740002ECF
S2140053B03ED1002908BF01281ED0C0F085810029F3
S2140053C008BF04284ED1FBF7ADFEC049D1E9002343
S2140053D022F0040444EA0A0243EA0B03C1E900236C
S2140053E05AEA0B0314BFBA4ABA4A4FF480631360F2
S2140053F0BDE8F84FFBF7CABEFBF794FEB349D1E908
S214005400002322F0010443EA0B0344EA0A02C1E93E
S21400541000235AEA0B03B04A4FF0010304D093630B
S21400542002F1C0623C32E2E7AC490B609363DFE70F
S21400543058EA090316D1012E14D1FBF773FEA84AC9
S214005440136823F001033B4313604FF48063A54ABF
S21400545027B1536602F1C0626832C8E7A2490B6002
S2140054605366C5E7FFF74AFF984BD3E9004525EAA0
S214005470090242EA0B0924EA0801994A41EA0A08A5
S214005480C3E90089136823EA06063E431660FFF761
S214005490B1FE08F02A5200231343944A9449126836
S2140054A048F2020308BF4FF40043B00748BF43F476
S2140054B0005322EA03070F6001F17C4183EA0200F1
S2140054C0043923EA02038B4A08601360002308F4B9
S2140054D00032134308F480204FF0000114BF4FF44D
S2140054E08053002350EA010208F010004FF000013C
S2140054F018BF43F4807350EA010208F020004FF012
S214005500000118BF43F4005350EA010208F04000BF
S2140055104FF0000118BF43F4007350EA010208F090
S21400552080004FF0000118BF43F4806350EA010288
S214005530714A7249126818BF43F4006322EA0307EF
S2140055400F6001F17C4183EA0200043923EA02037A
S2140055506B4A0860136009F080030022134308F4C6
S21400556080504FF0000114BF4FF48023002350EA10
S214005570010208F480304FF0000118BF43F4803376
S21400558050EA010208F002004FF0000118BF43F491
S214005590801350EA010208F480104FF0000118BF93
S2140055A043F4001350EA010208F400204FF0000113
S2140055B018BF43F4002350EA010209F004014FF03B
S2140055C0000018BF43F4003350EA01024D4A4E482B
S2140055D018BF43F480037107116848BF43F0040303
S2140055E083EA010222F0010211400160474913409C
S2140055F00A60474A1360474A474B16F0010F4FF0C0
S214005600000009F0010118BF134650EA0102434AA0
S2140056103549126818BF43F4001322EA03070F60E7
S21400562001F17C4183EA0200043923EA02033C4A82
S214005630086013603B4B29491B6808F0010423EA05
S21400564004070F6001F17C4183EA040024EA0302A8
S2140056500439354B08601A6008F40012002313431F
S214005660324A334B1B4808F004044FF0000518BFBD
S214005670134654EA050218BF43F4806332072D4AE6
S214005680116848BF43F0004383EA010222F4A022D7
S21400569011400160284913400A600D4A1360FBF769
S2140056A041FD264B4FF080521A604FF480721A600C
S2140056B010221A6020221A604FF000521A608022D0
S2140056C01A6040221A6093E6BDE8F88F481B002057
S2140056D0EC100846EC100844007008403C70084483
S2140056E0401B002000500840685008446C000840EA
S2140056F06C0008446C0008460C6208400C620844C3
S2140057000C62084620400840204008441C400840E0
S21400571020400846041C50000418500068500840FA
S214005720685008463C7008403C7008460D0A0A0956
S214005730090A0A09EC100840E810084000E100E0F9
S214005740024B5868C0F34000704700BF481B00205B
S21400575010B50446FFF7D6F9FFF7D0FD04F1280090
S21400576002F0DAF8FFF79CF9FEF736FEFEF7A6FE23
S21400577002F002FB072104F1800002F05DFB4FF40B
S21400578040010020FEF7D8FE4FF400110120FEF77E
S214005790D3FEFFF7EFFC084B04221A6702F0F2FC78
S2140057A010B91421FEF712FAFFF7D8FC0120BDE865
S2140057B01040FFF767B800BF00000840044B802287
S2140057C01A60044A136823F020031360704700BF72
S2140057D088400846D01E00212DE9F047174680462F
S2140057E089461D469DF820609DF824A0FBF79AFC8C
S2140057F0022F044629D00320FEF794FE20B120464F
S214005800FBF7C4FC03201BE0294B2A4ADA6618671C
S214005810294B01221A70294B83F800A0284B1A68DE
S214005820BAF1000F0ED042F020021A6049463A46FE
S2140058300320FEF7EDFF40B92046FBF7A7FC01204A
S214005840BDE8F08722F02002EFE7022E2BD00320DF
S214005850FEF768FE18B91B4B5B685B04CFD51A4B86
S2140058609DF828201A70012E08D1022F06D0B8F80D
S21400587090301D44154B1B6800261D44FFF7EEFCB8
S214005880324629460420FEF7D7FF30B90320FEF73C
S21400589039FE074B074ADA66B1E70D4B01221A704C
S2140058A00C4B30221A602046FBF770FC0020C7E73E
S2140058B00050084000000101531B0020551B00202B
S2140058C0D01E002100400840541B00201C1C002055
